{
  "_format": "hh-sol-artifact-1",
  "contractName": "Greeter",
  "sourceName": "contracts/Greeter.sol",
  "address": "0x8f32Faf5Bc8d90701c18A2517A819351c77AFE5a",
  "abi": [
    {
      "inputs": [],
      "stateMutability": "nonpayable",
      "type": "constructor"
    },
    {
      "inputs": [
        {
          "internalType": "address",
          "name": "",
          "type": "address"
        }
      ],
      "name": "addressToRNS",
      "outputs": [
        {
          "internalType": "string",
          "name": "",
          "type": "string"
        }
      ],
      "stateMutability": "view",
      "type": "function"
    },
    {
      "inputs": [
        {
          "internalType": "string",
          "name": "oldRNS",
          "type": "string"
        },
        {
          "internalType": "string",
          "name": "newRNS",
          "type": "string"
        }
      ],
      "name": "changeRNS",
      "outputs": [],
      "stateMutability": "nonpayable",
      "type": "function"
    },
    {
      "inputs": [
        {
          "internalType": "address",
          "name": "addr",
          "type": "address"
        }
      ],
      "name": "getBalanceOf",
      "outputs": [
        {
          "internalType": "uint256",
          "name": "",
          "type": "uint256"
        }
      ],
      "stateMutability": "view",
      "type": "function"
    },
    {
      "inputs": [],
      "name": "getYourRNS",
      "outputs": [
        {
          "internalType": "string",
          "name": "",
          "type": "string"
        }
      ],
      "stateMutability": "view",
      "type": "function"
    },
    {
      "inputs": [
        {
          "internalType": "string",
          "name": "rns",
          "type": "string"
        }
      ],
      "name": "isRNSRegistered",
      "outputs": [
        {
          "internalType": "bool",
          "name": "",
          "type": "bool"
        }
      ],
      "stateMutability": "view",
      "type": "function"
    },
    {
      "inputs": [
        {
          "internalType": "address payable",
          "name": "addr",
          "type": "address"
        }
      ],
      "name": "makeTransfer",
      "outputs": [],
      "stateMutability": "payable",
      "type": "function"
    },
    {
      "inputs": [
        {
          "internalType": "string",
          "name": "rns",
          "type": "string"
        }
      ],
      "name": "ownerOfRNS",
      "outputs": [
        {
          "internalType": "address",
          "name": "",
          "type": "address"
        }
      ],
      "stateMutability": "view",
      "type": "function"
    },
    {
      "inputs": [
        {
          "internalType": "string",
          "name": "rns",
          "type": "string"
        }
      ],
      "name": "registerRNS",
      "outputs": [],
      "stateMutability": "nonpayable",
      "type": "function"
    },
    {
      "inputs": [
        {
          "internalType": "string",
          "name": "",
          "type": "string"
        }
      ],
      "name": "registry",
      "outputs": [
        {
          "internalType": "bool",
          "name": "isInUse",
          "type": "bool"
        },
        {
          "internalType": "address",
          "name": "linkedAddress",
          "type": "address"
        },
        {
          "internalType": "string",
          "name": "rns",
          "type": "string"
        }
      ],
      "stateMutability": "view",
      "type": "function"
    },
    {
      "inputs": [
        {
          "internalType": "string",
          "name": "rns",
          "type": "string"
        }
      ],
      "name": "rnsTransfer",
      "outputs": [],
      "stateMutability": "payable",
      "type": "function"
    },
    {
      "stateMutability": "payable",
      "type": "receive"
    }
  ],
  "bytecode": "0x60806040523480156200001157600080fd5b506040516200087938038062000879833981810160405281019062000037919062000179565b80600090805190602001906200004f92919062000057565b50506200032e565b828054620000659062000253565b90600052602060002090601f016020900481019282620000895760008555620000d5565b82601f10620000a457805160ff1916838001178555620000d5565b82800160010185558215620000d5579182015b82811115620000d4578251825591602001919060010190620000b7565b5b509050620000e49190620000e8565b5090565b5b8082111562000103576000816000905550600101620000e9565b5090565b60006200011e6200011884620001e7565b620001be565b9050828152602081018484840111156200013757600080fd5b620001448482856200021d565b509392505050565b600082601f8301126200015e57600080fd5b81516200017084826020860162000107565b91505092915050565b6000602082840312156200018c57600080fd5b600082015167ffffffffffffffff811115620001a757600080fd5b620001b5848285016200014c565b91505092915050565b6000620001ca620001dd565b9050620001d8828262000289565b919050565b6000604051905090565b600067ffffffffffffffff821115620002055762000204620002ee565b5b62000210826200031d565b9050602081019050919050565b60005b838110156200023d57808201518184015260208101905062000220565b838111156200024d576000848401525b50505050565b600060028204905060018216806200026c57607f821691505b60208210811415620002835762000282620002bf565b5b50919050565b62000294826200031d565b810181811067ffffffffffffffff82111715620002b657620002b5620002ee565b5b80604052505050565b7f4e487b7100000000000000000000000000000000000000000000000000000000600052602260045260246000fd5b7f4e487b7100000000000000000000000000000000000000000000000000000000600052604160045260246000fd5b6000601f19601f8301169050919050565b61053b806200033e6000396000f3fe608060405234801561001057600080fd5b50600436106100415760003560e01c8063a413686214610046578063cfae321714610062578063ef690cc014610080575b600080fd5b610060600480360381019061005b91906102e3565b61009e565b005b61006a6100b8565b604051610077919061035d565b60405180910390f35b61008861014a565b604051610095919061035d565b60405180910390f35b80600090805190602001906100b49291906101d8565b5050565b6060600080546100c790610433565b80601f01602080910402602001604051908101604052809291908181526020018280546100f390610433565b80156101405780601f1061011557610100808354040283529160200191610140565b820191906000526020600020905b81548152906001019060200180831161012357829003601f168201915b5050505050905090565b6000805461015790610433565b80601f016020809104026020016040519081016040528092919081815260200182805461018390610433565b80156101d05780601f106101a5576101008083540402835291602001916101d0565b820191906000526020600020905b8154815290600101906020018083116101b357829003601f168201915b505050505081565b8280546101e490610433565b90600052602060002090601f016020900481019282610206576000855561024d565b82601f1061021f57805160ff191683800117855561024d565b8280016001018555821561024d579182015b8281111561024c578251825591602001919060010190610231565b5b50905061025a919061025e565b5090565b5b8082111561027757600081600090555060010161025f565b5090565b600061028e610289846103a4565b61037f565b9050828152602081018484840111156102a657600080fd5b6102b18482856103f1565b509392505050565b600082601f8301126102ca57600080fd5b81356102da84826020860161027b565b91505092915050565b6000602082840312156102f557600080fd5b600082013567ffffffffffffffff81111561030f57600080fd5b61031b848285016102b9565b91505092915050565b600061032f826103d5565b61033981856103e0565b9350610349818560208601610400565b610352816104f4565b840191505092915050565b600060208201905081810360008301526103778184610324565b905092915050565b600061038961039a565b90506103958282610465565b919050565b6000604051905090565b600067ffffffffffffffff8211156103bf576103be6104c5565b5b6103c8826104f4565b9050602081019050919050565b600081519050919050565b600082825260208201905092915050565b82818337600083830152505050565b60005b8381101561041e578082015181840152602081019050610403565b8381111561042d576000848401525b50505050565b6000600282049050600182168061044b57607f821691505b6020821081141561045f5761045e610496565b5b50919050565b61046e826104f4565b810181811067ffffffffffffffff8211171561048d5761048c6104c5565b5b80604052505050565b7f4e487b7100000000000000000000000000000000000000000000000000000000600052602260045260246000fd5b7f4e487b7100000000000000000000000000000000000000000000000000000000600052604160045260246000fd5b6000601f19601f830116905091905056fea26469706673582212200daa8595de8e9c5071de1f2d17a697af3bf669ad0afb4d69f4b49011d99660fa64736f6c63430008040033",
  "linkReferences": {},
  "deployedLinkReferences": {}
}